:020000020000FC
:020000040000FA
:02000004004BAF
:2050240061006D0070006C00650073005C00580043005000730069006D00000041004C00CD
:205044004C0055005300450052005300500052004F00460049004C0045003D0043003A00A3
:205064005C00500072006F006700720061006D00440061007400610000004100500050009D
:2050840044004100540041003D0043003A005C00550073006500720073005C00760069008F
:2050A40073007300690070005C0041007000700044006100740061005C0052006F006100B8
:2050C4006D0069006E0067000000410052004400550049004E004F005F0052004F004F00C0
:2050E40054003D0044003A005C0044006100740061005C00500072006F006A006500630008
:20510400740073005C0045006D006200650064006400650064005C00410072006400750056
:2051240069006E006F005F003100380030000000430041004E0041005000450042004900FA
:205144004E004400490052003D0044003A005C007500730072005C00430041004E0061001E
:20516400700065005F007400720075006E006B005C0045007800650063005F0044006500DA
:205184006200750067005C000000430041004E0041005000450053004F005500520043003D
:2051A40045004400490052003D0044003A005C007500730072005C00430041004E006100C7
:2051C400700065005F007400720075006E006B005C000000430041004E00610070006500FF
:0151E4005F6B
:00000001FF
